:100000000C9446000C9465000C9465000C946500FB
:100010000C9465000C9465000C9465000C946500CC
:100020000C9465000C9465000C9465000C946500BC
:100030000C9465000C942B020C9465000C946500E4
:100040000C9465000C9465000C9465000C9465009C
:100050000C9465000C9465000C9465000C9465008C
:100060000C9465000C9465000C9465000C9465007C
:100070000C9465000C9465000C9465000C9465006C
:100080000C9465000C9465000C94650011241FBE4F
:10009000CFEFD0E4DEBFCDBF12E0A0E0B1E0E2E8F8
:1000A000FFE000E00BBF02C007900D92AE32B10737
:1000B000D9F722E0AEE2B2E001C01D92AE33B20742
:1000C000E1F70E94F7040C94BF070C940000CF9353
:1000D000DF93CDB7DEB781E00E948E000000DF9194
:1000E000CF910895CF93DF93CDB7DEB784E690E04C
:1000F0000E94320188E30E948E0086E00E948E00FA
:100100008FE00E948E0081E00E948E008AE090E0E5
:100110000E9432010000DF91CF910895CF93DF93C9
:100120001F92CDB7DEB7898385E290E025E230E00B
:10013000F90120812F7BFC0120838BE290E0298153
:10014000FC01208385E290E025E230E0F901208186
:100150002068FC012083000085E290E025E230E089
:10016000F90120812F77FC01208382E090E00E943A
:10017000320100000F90DF91CF910895CF93DF936C
:100180001F92CDB7DEB7898385E290E025E230E0AB
:10019000F90120812064FC0120838BE290E0298119
:1001A000FC01208385E290E025E230E0F901208126
:1001B0002068FC012083000085E290E025E230E029
:1001C000F90120812F77FC01208381E090E00E94DB
:1001D000320100000F90DF91CF910895CF93DF930C
:1001E00000D000D0CDB7DEB78A837C836B830E94BA
:1001F00067008A81898311C0898191E0980F998372
:100200000E941B018B819C819C012F5F3F4F3C838F
:100210002B83FC0180810E94BE008B819C81FC01AC
:100220008081882349F700000F900F900F900F9066
:10023000DF91CF910895CF93DF931F92CDB7DEB7B3
:1002400089838981813128F4898181580E948E00B7
:1002500004C0898181550E948E0000000F90DF91BB
:10026000CF910895CF93DF9300D000D000D0CDB7C9
:10027000DEB79E838D831A82198213C01C821B8273
:1002800006C000008B819C8101969C838B838B81AF
:100290009C8187309340ACF389819A8101969A833F
:1002A000898329813A818D819E812817390734F30A
:1002B000000026960FB6F894DEBF0FBECDBFDF91CB
:1002C000CF910895CF93DF93CDB7DEB72C970FB6BC
:1002D000F894DEBF0FBECDBF6D837E838F8398877A
:1002E00029873A874B875C878D819E81AF81B8854E
:1002F00029853A854B855C85BC01CD010E949D070F
:10030000DC01CB0189839A83AB83BC8389819A8189
:10031000AB81BC81892B8A2B8B2B29F489859A850B
:10032000AB85BC8511C089859A85AB85BC858D83DD
:100330009E83AF83B88789819A81AB81BC8189878D
:100340009A87AB87BC87D0CFBC01CD012C960FB666
:10035000F894DEBF0FBECDBFDF91CF910895CF934C
:10036000DF9300D000D0CDB7DEB769837A838B836B
:100370009C8389819A81AB81BC8180930001909399
:100380000101A0930201B0930301809100019091BB
:100390000101A0910201B091030180932F0290937B
:1003A0003002A0933102B093320200000F900F9000
:1003B0000F900F90DF91CF910895CF93DF93CDB73A
:1003C000DEB781E890E02BE0FC01208388E890E034
:1003D0002DE730E0FC01318320838FE690E022E0BE
:1003E000FC01208384E890E0FC011182108280915E
:1003F000000190910101A0910201B091030180934D
:100400002F0290933002A0933102B09332028FE515
:1004100090E02FE530E0F90120812068FC01208385
:100420000000DF91CF910895CF93DF93CDB7DEB772
:1004300081E890E0FC0110820000DF91CF910895E7
:10044000CF93DF93CDB7DEB781E080932E0200001B
:10045000DF91CF9108951F920F9200905F000F924D
:10046000112400905B000F922F933F934F935F9363
:100470006F937F938F939F93AF93BF93EF93FF936C
:10048000CF93DF93CDB7DEB780912F0290913002EA
:10049000A0913102B09132020197A109B109809374
:1004A0002F0290933002A0933102B09332028091D8
:1004B0002F0290913002A0913102B0913202892B2B
:1004C0008A2B8B2B91F40E94200280910001909145
:1004D0000101A0910201B091030180932F0290933A
:1004E0003002A0933102B09332020000DF91CF912D
:1004F000FF91EF91BF91AF919F918F917F916F91FC
:100500005F914F913F912F910F9000925B000F9060
:1005100000925F000F901F901895CF93DF9300D04B
:100520001F92CDB7DEB789837B836A8389818A3046
:1005300031F48A819B81BC018DE00E948D0280ECA8
:1005400090E0FC018081882F90E080729927892BB0
:10055000B1F386EC90E02981FC01208380E090E0FB
:100560000F900F900F90DF91CF910895CF93DF936D
:10057000CDB7DEB78AE790E02AE730E0F9012081C5
:10058000206EFC0120830000DF91CF910895CF936E
:10059000DF9300D000D0CDB7DEB788E790E0FC0154
:1005A00080819181CC01A0E0B0E089839A83AB8304
:1005B000BC8389819A81AB81BC81C197A105B105BA
:1005C00010F481E001C080E00F900F900F900F9029
:1005D000DF91CF910895CF93DF9300D000D0CDB7B6
:1005E000DEB788E790E0FC0180819181CC01A0E03A
:1005F000B0E089839A83AB83BC8389819A81AB8184
:10060000BC818F3C9340A105B10510F081E001C091
:1006100080E00F900F900F900F90DF91CF91089591
:10062000CF93DF9300D01F92CDB7DEB79B838A8331
:1006300083E290E0FC018081887089838A819B81BC
:100640008130910581F082309105D1F0892BD9F468
:100650008981882329F481E090E09B838A8316C0F6
:100660001B821A8213C08981883029F482E090E0CD
:100670009B838A830BC081E090E09B838A8306C0C2
:100680001B821A8203C01B821A8200008A819B810E
:1006900081309105C9F08230910519F0892BB1F0B4
:1006A00016C080913302882339F481E080933302AD
:1006B00081E08093340204C010923302109234021D
:1006C00081E08093120103C0000001C000008A8114
:1006D0009B810F900F900F90DF91CF910895CF9352
:1006E000DF9300D0CDB7DEB79A83898389819A8161
:1006F00081309105B9F08230910591F1892B99F5FE
:1007000080913302882319F41A8219822FC0109223
:100710003802109237021092350281E090E09A83FD
:10072000898324C080913302882319F41A821982A4
:100730001DC0209137023091380288E290E02817DE
:10074000390720F480913602882329F082E090E076
:100750009A8389830BC081E090E09A83898306C0E5
:100760001A82198203C01A821982000089819A8133
:100770008130910561F08230910509F446C0892BE2
:1007800009F04FC085E290E0FC0110824AC0209140
:1007900037023091380288E290E02817390720F0BC
:1007A000809136028823E1F185E290E020913702C2
:1007B000309138022B5E3E4FF90120812370FC01FD
:1007C00020830E94C702282F80913702909138021F
:1007D000825C9E4FFC018081281711F50E94EB027C
:1007E000282F809137029091380289599E4FFC0141
:1007F00080812817A9F480913702909138020196E0
:1008000090933802809337020BC081E080933502C9
:10081000109233021092340281E08093120101C0E1
:10082000000089819A810F900F90DF91CF910895F8
:10083000CF93DF9300D01F92CDB7DEB79B838A831F
:1008400080913902898386E290E0FC018081817089
:10085000809339028A819B81892B79F41B821A82C9
:1008600080913902809336029091360289819817DF
:1008700039F081E08093120103C01B821A8201C00B
:10088000000088E290E020913402220FFC012083D6
:100890008A819B810F900F900F90DF91CF910895E7
:1008A000CF93DF9300D0CDB7DEB79A838983898158
:1008B0009A818130910589F08230910529F1892B47
:1008C00001F580911201882329F081E090E09A835C
:1008D00089831BC01A82198218C080913A029091B4
:1008E0003B02039734F480913C0290913D020397C0
:1008F0002CF082E090E09A83898307C01A821982E3
:1009000004C01A82198201C0000089819A81813055
:10091000910521F0029709F453C062C0809135021D
:10092000882351F080913602882331F060E971E02C
:1009300081E00E94EE0041C080913502882379F069
:1009400069EA71E081E00E94EE0080913A029091A4
:100950003B02019690933B0280933A022EC0809115
:100960003602882379F067EC71E081E00E94EE00A6
:1009700080913C0290913D02019690933D028093BC
:100980003C021BC080913302813071F480913502AA
:10099000882351F480913602882331F465EE71E0AA
:1009A00081E00E94EE0009C080913302882329F47F
:1009B0006DEE71E081E00E94EE001092120110C015
:1009C00020913A0230913B0280913C0290913D028D
:1009D000821793072CF464E072E081E00E94EE003D
:1009E00089819A810F900F90DF91CF910895CF93D5
:1009F000DF93CDB7DEB72B970FB6F894DEBF0FBEEF
:100A0000CDBF81E290E0FC01108284E290E027EF0C
:100A1000FC01208385E290E028E0FC01208387E24E
:100A200090E0FC0110828AE290E02FEFFC0120832D
:100A300082E38B8384E090E09D838C831F821E82FF
:100A40002C813D81C901019799878887A901CA0135
:100A5000880F991F840F951F880F991F880F991F62
:100A6000C901880F991F820F931F880F991F880F44
:100A7000991F2DB73EB7281B390B0FB6F8943EBF10
:100A80000FBE2DBF8DB79EB701969B878A874A857B
:100A90005B852E813F81C901880F991F820F931FAB
:100AA000880F991F880F991F840F951F2FEF3FEF15
:100AB000FC01318320834A855B852E813F81C901FA
:100AC000880F991F820F931F880F991F880F991FF6
:100AD000840F951F9C012E5F3F4F82E390E0A0E0C2
:100AE000B0E0F90180839183A283B3834A855B855B
:100AF0002E813F81C901880F991F820F931F880F94
:100B0000991F880F991F840F951F0696FC0110826C
:100B10001182128213824A855B852E813F81C90131
:100B2000880F991F820F931F880F991F880F991F95
:100B3000840F951F0A9620E133E0FC013183208366
:100B40008E819F8101969F838E834A855B852E814E
:100B50003F81C901880F991F820F931F880F991F2A
:100B6000880F991F840F951F2FEF3FEFFC013183F2
:100B700020834A855B852E813F81C901880F991F9B
:100B8000820F931F880F991F880F991F840F951F3D
:100B90009C012E5F3F4F82E390E0A0E0B0E0F901BE
:100BA00080839183A283B3834A855B852E813F81B5
:100BB000C901880F991F820F931F880F991F880FF3
:100BC000991F840F951F0696FC01108211821282D4
:100BD00013824A855B852E813F81C901880F991F49
:100BE000820F931F880F991F880F991F840F951FDD
:100BF0000A962FE633E0FC01318320838E819F81AA
:100C000001969F838E834A855B852E813F81C90132
:100C1000880F991F820F931F880F991F880F991FA4
:100C2000840F951F2FEF3FEFFC01318320834A850E
:100C30005B852E813F81C901880F991F820F931F09
:100C4000880F991F880F991F840F951F9C012E5F95
:100C50003F4F82E390E0A0E0B0E0F9018083918310
:100C6000A283B3834A855B852E813F81C901880FAA
:100C7000991F820F931F880F991F880F991F840F48
:100C8000951F0696FC0110821182128213824A85FA
:100C90005B852E813F81C901880F991F820F931FA9
:100CA000880F991F880F991F840F951F0A9628E1B6
:100CB00034E0FC01318320838E819F8101969F83E4
:100CC0008E834A855B852E813F81C901880F991FDC
:100CD000820F931F880F991F880F991F840F951FEC
:100CE0002FEF3FEFFC01318320834A855B852E8106
:100CF0003F81C901880F991F820F931F880F991F89
:100D0000880F991F840F951F9C012E5F3F4F82E330
:100D100090E0A0E0B0E0F90180839183A283B383E7
:100D20004A855B852E813F81C901880F991F820FFB
:100D3000931F880F991F880F991F840F951F069680
:100D4000FC0110821182128213824A855B852E81FA
:100D50003F81C901880F991F820F931F880F991F28
:100D6000880F991F840F951F0A9620E534E0FC0137
:100D7000318320838E819F8101969F838E830E9481
:100D8000720061E272E081E00E94EE000E94B60211
:100D90008B81882F90E0A0E0B0E0BC01CD010E94E3
:100DA000AF010E94DD011A821982B7C04A855B85B6
:100DB00029813A81C901880F991F820F931F880FDB
:100DC000991F880F991F840F951F0696FC0120819B
:100DD000318142815381EA85FB8569817A81CB012A
:100DE000880F991F860F971F880F991F880F991FCB
:100DF0008E0F9F1F0296FC0180819181A281B38199
:100E0000281739074A075B0708F44FC04A855B85F6
:100E100029813A81C901880F991F820F931F880F7A
:100E2000991F880F991F840F951F0A96FC01408116
:100E300051816A857B8529813A81C901880F991F73
:100E4000820F931F880F991F880F991F860F971F76
:100E5000FC0180819181FA010995BC014A855B857D
:100E600029813A81C901880F991F820F931F880F2A
:100E7000991F880F991F840F951FFC017183608350
:100E80004A855B8529813A81C901880F991F820FA4
:100E9000931F880F991F880F991F840F951F06961F
:100EA000FC0110821182128213824A855B8529819E
:100EB0003A81C901880F991F820F931F880F991FCC
:100EC000880F991F840F951F0696FC0120813181A0
:100ED000428153818B81882F90E0A0E0B0E0280F01
:100EE000391F4A1F5B1FEA85FB8569817A81CB0127
:100EF000880F991F860F971F880F991F880F991FBA
:100F00008E0F9F1F0696FC012083318342835383FB
:100F100089819A8101969A83898329813A818C817A
:100F20009D81281739070CF441CF000080912E02D3
:100F30008823E1F310922E0236CFA1E21A2EAA1BCB
:100F4000BB1BFD010DC0AA1FBB1FEE1FFF1FA21779
:100F5000B307E407F50720F0A21BB30BE40BF50B76
:100F6000661F771F881F991F1A9469F760957095FF
:100F7000809590959B01AC01BD01CF010895F89437
:020F8000FFCFA1
:100F82000100000000000002000000008D020000CD
:100F92000000012800020201010202010102020115
:100FA2000102020101020201010202010102020127
:100FB200010202010102020101020201010001001B
:100FC200000001000000010000000100000001001B
:100FD200000001000000010000000100000001000B
:100FE20000000100000000000001000000010000FC
:100FF20000010000000100000001000000010000EB
:1010020000010000000100000001000000010000DA
:10101200426F746820706C617965727320202020A1
:1010220066696E69736865640050312066696E692D
:101032007368656420202020206669727374212001
:101042002B31207074210050322066696E697368FA
:1010520065642020202020666972737421202B3160
:101062002070742100476F6F6F6F6F6F0050757340
:101072006820427574746F6E20746F2020737461DF
:1010820072742E0050312077696E7321205265737D
:1010920065742020706F77657220706C656173656E
:0E10A20000696E697469616C697A696E670035
:00000001FF
