:100000000C9446000C9465000C9465000C946500FB
:100010000C9465000C9465000C9465000C946500CC
:100020000C9465000C9465000C9465000C946500BC
:100030000C9465000C942B020C9465000C946500E4
:100040000C9465000C9465000C9465000C9465009C
:100050000C9465000C9465000C9465000C9465008C
:100060000C9465000C9465000C9465000C9465007C
:100070000C9465000C9465000C9465000C9465006C
:100080000C9465000C9465000C94650011241FBE4F
:10009000CFEFD0E4DEBFCDBF11E0A0E0B1E0E8EDEE
:1000A000FAE000E00BBF02C007900D92A834B10740
:1000B000D9F721E0A8E4B1E001C01D92A435B20750
:1000C000E1F70E945F030C946A050C940000CF9343
:1000D000DF93CDB7DEB781E00E948E000000DF9194
:1000E000CF910895CF93DF93CDB7DEB784E690E04C
:1000F0000E94320188E30E948E0086E00E948E00FA
:100100008FE00E948E0081E00E948E008AE090E0E5
:100110000E9432010000DF91CF910895CF93DF93C9
:100120001F92CDB7DEB7898385E290E025E230E00B
:10013000F90120812F7BFC0120838BE290E0298153
:10014000FC01208385E290E025E230E0F901208186
:100150002068FC012083000085E290E025E230E089
:10016000F90120812F77FC01208382E090E00E943A
:10017000320100000F90DF91CF910895CF93DF936C
:100180001F92CDB7DEB7898385E290E025E230E0AB
:10019000F90120812064FC0120838BE290E0298119
:1001A000FC01208385E290E025E230E0F901208126
:1001B0002068FC012083000085E290E025E230E029
:1001C000F90120812F77FC01208381E090E00E94DB
:1001D000320100000F90DF91CF910895CF93DF930C
:1001E00000D000D0CDB7DEB78A837C836B830E94BA
:1001F00067008A81898311C0898191E0980F998372
:100200000E941B018B819C819C012F5F3F4F3C838F
:100210002B83FC0180810E94BE008B819C81FC01AC
:100220008081882349F700000F900F900F900F9066
:10023000DF91CF910895CF93DF931F92CDB7DEB7B3
:1002400089838981813128F4898181580E948E00B7
:1002500004C0898181550E948E0000000F90DF91BB
:10026000CF910895CF93DF9300D000D000D0CDB7C9
:10027000DEB79E838D831A82198213C01C821B8273
:1002800006C000008B819C8101969C838B838B81AF
:100290009C8187309340ACF389819A8101969A833F
:1002A000898329813A818D819E812817390734F30A
:1002B000000026960FB6F894DEBF0FBECDBFDF91CB
:1002C000CF910895CF93DF93CDB7DEB72C970FB6BC
:1002D000F894DEBF0FBECDBF6D837E838F8398877A
:1002E00029873A874B875C878D819E81AF81B8854E
:1002F00029853A854B855C85BC01CD010E94480566
:10030000DC01CB0189839A83AB83BC8389819A8189
:10031000AB81BC81892B8A2B8B2B29F489859A850B
:10032000AB85BC8511C089859A85AB85BC858D83DD
:100330009E83AF83B88789819A81AB81BC8189878D
:100340009A87AB87BC87D0CFBC01CD012C960FB666
:10035000F894DEBF0FBECDBFDF91CF910895CF934C
:10036000DF9300D000D0CDB7DEB769837A838B836B
:100370009C8389819A81AB81BC8180930001909399
:100380000101A0930201B0930301809100019091BB
:100390000101A0910201B091030180934901909362
:1003A0004A01A0934B01B0934C0100000F900F90B5
:1003B0000F900F90DF91CF910895CF93DF93CDB73A
:1003C000DEB781E890E02BE0FC01208388E890E034
:1003D0002DE730E0FC01318320838FE690E022E0BE
:1003E000FC01208384E890E0FC011182108280915E
:1003F000000190910101A0910201B091030180934D
:10040000490190934A01A0934B01B0934C018FE5B1
:1004100090E02FE530E0F90120812068FC01208385
:100420000000DF91CF910895CF93DF93CDB7DEB772
:1004300081E890E0FC0110820000DF91CF910895E7
:10044000CF93DF93CDB7DEB781E080934801000002
:10045000DF91CF9108951F920F9200905F000F924D
:10046000112400905B000F922F933F934F935F9363
:100470006F937F938F939F93AF93BF93EF93FF936C
:10048000CF93DF93CDB7DEB78091490190914A01B8
:10049000A0914B01B0914C010197A109B109809342
:1004A000490190934A01A0934B01B0934C01809174
:1004B000490190914A01A0914B01B0914C01892BC7
:1004C0008A2B8B2B91F40E94200280910001909145
:1004D0000101A0910201B091030180934901909321
:1004E0004A01A0934B01B0934C010000DF91CF91E2
:1004F000FF91EF91BF91AF919F918F917F916F91FC
:100500005F914F913F912F910F9000925B000F9060
:1005100000925F000F901F901895CF93DF9300D04B
:100520001F92CDB7DEB789837B836A8389818A3046
:1005300031F48A819B81BC018DE00E948D0280ECA8
:1005400090E0FC018081882F90E080729927892BB0
:10055000B1F386EC90E02981FC01208380E090E0FB
:100560000F900F900F90DF91CF910895CF93DF936D
:10057000CDB7DEB78AE790E02AE730E0F9012081C5
:10058000206EFC0120830000DF91CF910895CF936E
:10059000DF931F92CDB7DEB788E790E0FC01808142
:1005A0009181898381E09981913308F080E00F90F7
:1005B000DF91CF910895CF93DF931F92CDB7DEB730
:1005C00088E790E0FC0180819181898381E09981B5
:1005D0009E3708F480E00F90DF91CF910895CF937C
:1005E000DF9300D000D01F92CDB7DEB79D838C8300
:1005F00081E090E09D838C8319821A821B828C811A
:100600009D818130910519F0029751F12EC0209102
:100610004F01309150018091460190914701281778
:10062000390710F50E94C702882359F085E290E04F
:1006300021E0FC01208362E171E081E00E94EE0094
:1006400013C00E94DB02882379F085E290E022E06B
:10065000FC0120836CE171E081E00E94EE0004C0A7
:1006600081E080934E0101C000008C819D810F903C
:100670000F900F900F900F90DF91CF910895CF932F
:10068000DF9300D0CDB7DEB79A83898389819A81C1
:10069000892B51F480914E01882349F067E271E083
:1006A00081E00E94EE0003C01A82198201C000009E
:1006B00089819A810F900F90DF91CF910895CF9308
:1006C000DF93CDB7DEB72B970FB6F894DEBF0FBE22
:1006D000CDBF81E290E0FC01108284E290E02FEF38
:1006E000FC01208387E290E02FEFFC0120838AE267
:1006F00090E02FEFFC01208382E38B8382E090E087
:100700009D838C831F821E822C813D81C9010197AC
:1007100099878887A901CA01880F991F840F951F9F
:10072000880F991F880F991FC901880F991F820F81
:10073000931F880F991F880F991F2DB73EB7281B4D
:10074000390B0FB6F8943EBF0FBE2DBF8DB79EB7C5
:1007500001969B878A874A855B852E813F81C901E7
:10076000880F991F820F931F880F991F880F991F59
:10077000840F951F21E030E0FC01318320834A85FE
:100780005B852E813F81C901880F991F820F931FBE
:10079000880F991F880F991F840F951F9C012E5F4A
:1007A0003F4F82E390E0A0E0B0E0F90180839183C5
:1007B000A283B3834A855B852E813F81C901880F5F
:1007C000991F820F931F880F991F880F991F840FFD
:1007D000951F0696FC0110821182128213824A85AF
:1007E0005B852E813F81C901880F991F820F931F5E
:1007F000880F991F880F991F840F951F0A962FEE57
:1008000032E0FC01318320838E819F8101969F839A
:100810008E834A855B852E813F81C901880F991F90
:10082000820F931F880F991F880F991F840F951FA0
:100830002FEF3FEFFC01318320834A855B852E81BA
:100840003F81C901880F991F820F931F880F991F3D
:10085000880F991F840F951F9C012E5F3F4F82E3E5
:1008600090E0A0E0B0E0F90180839183A283B3839C
:100870004A855B852E813F81C901880F991F820FB0
:10088000931F880F991F880F991F840F951F069635
:10089000FC0110821182128213824A855B852E81AF
:1008A0003F81C901880F991F820F931F880F991FDD
:1008B000880F991F840F951F0A962FE333E0FC01E0
:1008C000318320838E819F8101969F838E830E9436
:1008D000720069E371E081E00E94EE000E94B602BE
:1008E0008B81882F90E0A0E0B0E0BC01CD010E9498
:1008F000AF010E94DD0181E080934D011A821982CF
:10090000B7C04A855B8529813A81C901880F991F43
:10091000820F931F880F991F880F991F840F951FAF
:100920000696FC012081318142815381EA85FB8555
:1009300069817A81CB01880F991F860F971F880FD5
:10094000991F880F991F8E0F9F1F0296FC018081AF
:100950009181A281B381281739074A075B0708F400
:100960004FC04A855B8529813A81C901880F991F4B
:10097000820F931F880F991F880F991F840F951F4F
:100980000A96FC01408151816A857B8529813A81E3
:10099000C901880F991F820F931F880F991F880F15
:1009A000991F860F971FFC0180819181FA0109959B
:1009B000BC014A855B8529813A81C901880F991F4D
:1009C000820F931F880F991F880F991F840F951FFF
:1009D000FC01718360834A855B8529813A81C90165
:1009E000880F991F820F931F880F991F880F991FD7
:1009F000840F951F0696FC011082118212821382C9
:100A00004A855B8529813A81C901880F991F820F28
:100A1000931F880F991F880F991F840F951F0696A3
:100A2000FC0120813181428153818B81882F90E0AC
:100A3000A0E0B0E0280F391F4A1F5B1FEA85FB8545
:100A400069817A81CB01880F991F860F971F880FC4
:100A5000991F880F991F8E0F9F1F0696FC012083F8
:100A600031834283538389819A8101969A83898352
:100A700029813A818C819D81281739070CF441CF57
:100A80000000809148018823E1F31092480136CF9D
:100A9000A1E21A2EAA1BBB1BFD010DC0AA1FBB1F82
:100AA000EE1FFF1FA217B307E407F50720F0A21BF4
:100AB000B30BE40BF50B661F771F881F991F1A9461
:100AC00069F760957095809590959B01AC01BD018B
:080AD000CF010895F894FFCF57
:100AD8000100000000000002000000008D0200007C
:100AE80000006C65667420666F6F740072696768D1
:100AF8007420666F6F7400506C61796572203120C4
:100B080066696E697368656400696E697469616CA9
:080B1800697A696E67001400A0
:00000001FF
