:100000000C9446000C9465000C9465000C946500FB
:100010000C9465000C9465000C9465000C946500CC
:100020000C9465000C9465000C9465000C946500BC
:100030000C9465000C942B020C9465000C946500E4
:100040000C9465000C9465000C9465000C9465009C
:100050000C9465000C9465000C9465000C9465008C
:100060000C9465000C9465000C9465000C9465007C
:100070000C9465000C9465000C9465000C9465006C
:100080000C9465000C9465000C94650011241FBE4F
:10009000CFEFD0E4DEBFCDBF11E0A0E0B1E0E6E4F9
:1000A000FEE000E00BBF02C007900D92A83CB10734
:1000B000D9F721E0A8ECB1E001C01D92A53DB2073F
:1000C000E1F70E9459040C9421070C940000CF938F
:1000D000DF93CDB7DEB781E00E948E000000DF9194
:1000E000CF910895CF93DF93CDB7DEB784E690E04C
:1000F0000E94320188E30E948E0086E00E948E00FA
:100100008FE00E948E0081E00E948E008AE090E0E5
:100110000E9432010000DF91CF910895CF93DF93C9
:100120001F92CDB7DEB7898385E290E025E230E00B
:10013000F90120812F7BFC0120838BE290E0298153
:10014000FC01208385E290E025E230E0F901208186
:100150002068FC012083000085E290E025E230E089
:10016000F90120812F77FC01208382E090E00E943A
:10017000320100000F90DF91CF910895CF93DF936C
:100180001F92CDB7DEB7898385E290E025E230E0AB
:10019000F90120812064FC0120838BE290E0298119
:1001A000FC01208385E290E025E230E0F901208126
:1001B0002068FC012083000085E290E025E230E029
:1001C000F90120812F77FC01208381E090E00E94DB
:1001D000320100000F90DF91CF910895CF93DF930C
:1001E00000D000D0CDB7DEB78A837C836B830E94BA
:1001F00067008A81898311C0898191E0980F998372
:100200000E941B018B819C819C012F5F3F4F3C838F
:100210002B83FC0180810E94BE008B819C81FC01AC
:100220008081882349F700000F900F900F900F9066
:10023000DF91CF910895CF93DF931F92CDB7DEB7B3
:1002400089838981813128F4898181580E948E00B7
:1002500004C0898181550E948E0000000F90DF91BB
:10026000CF910895CF93DF9300D000D000D0CDB7C9
:10027000DEB79E838D831A82198213C01C821B8273
:1002800006C000008B819C8101969C838B838B81AF
:100290009C8187309340ACF389819A8101969A833F
:1002A000898329813A818D819E812817390734F30A
:1002B000000026960FB6F894DEBF0FBECDBFDF91CB
:1002C000CF910895CF93DF93CDB7DEB72C970FB6BC
:1002D000F894DEBF0FBECDBF6D837E838F8398877A
:1002E00029873A874B875C878D819E81AF81B8854E
:1002F00029853A854B855C85BC01CD010E94FF06AE
:10030000DC01CB0189839A83AB83BC8389819A8189
:10031000AB81BC81892B8A2B8B2B29F489859A850B
:10032000AB85BC8511C089859A85AB85BC858D83DD
:100330009E83AF83B88789819A81AB81BC8189878D
:100340009A87AB87BC87D0CFBC01CD012C960FB666
:10035000F894DEBF0FBECDBFDF91CF910895CF934C
:10036000DF9300D000D0CDB7DEB769837A838B836B
:100370009C8389819A81AB81BC8180930001909399
:100380000101A0930201B0930301809100019091BB
:100390000101A0910201B09103018093C9019093E2
:1003A000CA01A093CB01B093CC0100000F900F9035
:1003B0000F900F90DF91CF910895CF93DF93CDB73A
:1003C000DEB781E890E02BE0FC01208388E890E034
:1003D0002DE730E0FC01318320838FE690E022E0BE
:1003E000FC01208384E890E0FC011182108280915E
:1003F000000190910101A0910201B091030180934D
:10040000C9019093CA01A093CB01B093CC018FE5B1
:1004100090E02FE530E0F90120812068FC01208385
:100420000000DF91CF910895CF93DF93CDB7DEB772
:1004300081E890E0FC0110820000DF91CF910895E7
:10044000CF93DF93CDB7DEB781E08093C801000082
:10045000DF91CF9108951F920F9200905F000F924D
:10046000112400905B000F922F933F934F935F9363
:100470006F937F938F939F93AF93BF93EF93FF936C
:10048000CF93DF93CDB7DEB78091C9019091CA01B8
:10049000A091CB01B091CC010197A109B109809342
:1004A000C9019093CA01A093CB01B093CC01809174
:1004B000C9019091CA01A091CB01B091CC01892BC7
:1004C0008A2B8B2B91F40E94200280910001909145
:1004D0000101A0910201B09103018093C9019093A1
:1004E000CA01A093CB01B093CC010000DF91CF9162
:1004F000FF91EF91BF91AF919F918F917F916F91FC
:100500005F914F913F912F910F9000925B000F9060
:1005100000925F000F901F901895CF93DF9300D04B
:100520001F92CDB7DEB789837B836A8389818A3046
:1005300031F48A819B81BC018DE00E948D0280ECA8
:1005400090E0FC018081882F90E080729927892BB0
:10055000B1F386EC90E02981FC01208380E090E0FB
:100560000F900F900F90DF91CF910895CF93DF936D
:10057000CDB7DEB78AE790E02AE730E0F9012081C5
:10058000206EFC0120830000DF91CF910895CF936E
:10059000DF9300D000D0CDB7DEB788E790E0FC0154
:1005A00080819181CC01A0E0B0E089839A83AB8304
:1005B000BC8389819A81AB81BC81C197A105B105BA
:1005C00010F481E001C080E00F900F900F900F9029
:1005D000DF91CF910895CF93DF9300D000D0CDB7B6
:1005E000DEB788E790E0FC0180819181CC01A0E03A
:1005F000B0E089839A83AB83BC8389819A81AB8184
:10060000BC818F3C9340A105B10510F081E001C091
:1006100080E00F900F900F900F90DF91CF91089591
:10062000CF93DF9300D01F92CDB7DEB79B838A8331
:1006300083E290E0FC018081887089838A819B81BC
:100640008130910581F082309105D1F0892BD9F468
:100650008981882329F481E090E09B838A8316C0F6
:100660001B821A8213C08981883029F482E090E0CD
:100670009B838A830BC081E090E09B838A8306C0C2
:100680001B821A8203C01B821A8200008A819B810E
:1006900081309105D9F08230910519F0892BC1F094
:1006A00018C08091CD01882349F462E171E081E0B6
:1006B0000E94EE0081E08093CD010BC067E171E004
:1006C00081E00E94EE001092CD0103C0000001C045
:1006D00000008A819B810F900F900F90DF91CF9146
:1006E0000895CF93DF9300D000D01F92CDB7DEB72F
:1006F0009D838C838C819D8181309105B9F08230FE
:10070000910571F1892B79F58091CD01882319F438
:100710001D821C822BC01092D0011092CF0110922A
:10072000CE0181E090E09D838C8320C08091CD013B
:10073000882319F41D821C8219C02091CF013091A9
:10074000D00188E290E02817390728F082E090E095
:100750009D838C830BC081E090E09D838C8306C0D9
:100760001D821C8203C01D821C82000019821A8215
:100770001B828C819D818130910519F0029771F166
:1007800032C02091CF013091D00188E290E028174B
:10079000390740F50E94C702282F8091CF01909120
:1007A000D001825D9E4FFC0180812817D9F40E9400
:1007B000EB02282F8091CF019091D001895A9E4F52
:1007C000FC018081281771F48091CF019091D001B4
:1007D00001969093D0018093CF0104C081E0809373
:1007E000CE0101C000008C819D810F900F900F9071
:1007F0000F900F90DF91CF910895CF93DF9300D0AA
:100800001F92CDB7DEB79B838A8386E290E0FC011E
:100810008081817089838A819B81892B39F41B8235
:100820001A82898181708093D10103C01B821A8250
:1008300000008A819B810F900F900F90DF91CF91E4
:100840000895CF93DF9300D0CDB7DEB79A83898325
:1008500089819A81892B11F58091CE01882351F0ED
:100860008091D101882331F060E871E081E00E943D
:10087000EE0017C08091CE01882331F066E971E067
:1008800081E00E94EE000DC08091D101882349F0E3
:1008900068EA71E081E00E94EE0003C01A821982CA
:1008A00001C0000089819A810F900F90DF91CF9154
:1008B0000895CF93DF93CDB7DEB72B970FB6F8949B
:1008C000DEBF0FBECDBF81E290E0FC01108284E26A
:1008D00090E027EFFC01208385E290E028E0FC0116
:1008E000208387E290E0FC0110828AE290E02FEF03
:1008F000FC01208382E38B8384E090E09D838C83E2
:100900001F821E822C813D81C901019799878887AA
:10091000A901CA01880F991F840F951F880F991F7D
:10092000880F991FC901880F991F820F931F880F85
:10093000991F880F991F2DB73EB7281B390B0FB68B
:10094000F8943EBF0FBE2DBF8DB79EB701969B8713
:100950008A874A855B852E813F81C901880F991F4F
:10096000820F931F880F991F880F991F840F951F5F
:100970002FEF3FEFFC01318320834A855B852E8179
:100980003F81C901880F991F820F931F880F991FFC
:10099000880F991F840F951F9C012E5F3F4F82E3A4
:1009A00090E0A0E0B0E0F90180839183A283B3835B
:1009B0004A855B852E813F81C901880F991F820F6F
:1009C000931F880F991F880F991F840F951F0696F4
:1009D000FC0110821182128213824A855B852E816E
:1009E0003F81C901880F991F820F931F880F991F9C
:1009F000880F991F840F951F0A9620E133E0FC01B0
:100A0000318320838E819F8101969F838E834A85C7
:100A10005B852E813F81C901880F991F820F931F2B
:100A2000880F991F880F991F840F951F2FEF3FEF95
:100A3000FC01318320834A855B852E813F81C9017A
:100A4000880F991F820F931F880F991F880F991F76
:100A5000840F951F9C012E5F3F4F82E390E0A0E042
:100A6000B0E0F90180839183A283B3834A855B85DB
:100A70002E813F81C901880F991F820F931F880F14
:100A8000991F880F991F840F951F0696FC011082ED
:100A90001182128213824A855B852E813F81C901B2
:100AA000880F991F820F931F880F991F880F991F16
:100AB000840F951F0A9621E733E0FC0131832083E0
:100AC0008E819F8101969F838E834A855B852E81CF
:100AD0003F81C901880F991F820F931F880F991FAB
:100AE000880F991F840F951F2FEF3FEFFC01318373
:100AF00020834A855B852E813F81C901880F991F1C
:100B0000820F931F880F991F880F991F840F951FBD
:100B10009C012E5F3F4F82E390E0A0E0B0E0F9013E
:100B200080839183A283B3834A855B852E813F8135
:100B3000C901880F991F820F931F880F991F880F73
:100B4000991F840F951F0696FC0110821182128254
:100B500013824A855B852E813F81C901880F991FC9
:100B6000820F931F880F991F880F991F840F951F5D
:100B70000A962DEF33E0FC01318320838E819F8123
:100B800001969F838E834A855B852E813F81C901B3
:100B9000880F991F820F931F880F991F880F991F25
:100BA000840F951F2FEF3FEFFC01318320834A858F
:100BB0005B852E813F81C901880F991F820F931F8A
:100BC000880F991F880F991F840F951F9C012E5F16
:100BD0003F4F82E390E0A0E0B0E0F9018083918391
:100BE000A283B3834A855B852E813F81C901880F2B
:100BF000991F820F931F880F991F880F991F840FC9
:100C0000951F0696FC0110821182128213824A857A
:100C10005B852E813F81C901880F991F820F931F29
:100C2000880F991F880F991F840F951F0A9621E23C
:100C300034E0FC01318320838E819F8101969F8364
:100C40008E830E9472006AEB71E081E00E94EE00E8
:100C50000E94B6028B81882F90E0A0E0B0E0BC013A
:100C6000CD010E94AF010E94DD011A821982B7C036
:100C70004A855B8529813A81C901880F991F820FB6
:100C8000931F880F991F880F991F840F951F069631
:100C9000FC012081318142815381EA85FB85698194
:100CA0007A81CB01880F991F860F971F880F991F94
:100CB000880F991F8E0F9F1F0296FC0180819181E2
:100CC000A281B381281739074A075B0708F44FC090
:100CD0004A855B8529813A81C901880F991F820F56
:100CE000931F880F991F880F991F840F951F0A96CD
:100CF000FC01408151816A857B8529813A81C90146
:100D0000880F991F820F931F880F991F880F991FB3
:100D1000860F971FFC0180819181FA010995BC0122
:100D20004A855B8529813A81C901880F991F820F05
:100D3000931F880F991F880F991F840F951FFC011F
:100D4000718360834A855B8529813A81C901880F57
:100D5000991F820F931F880F991F880F991F840F67
:100D6000951F0696FC0110821182128213824A8519
:100D70005B8529813A81C901880F991F820F931FD2
:100D8000880F991F880F991F840F951F0696FC01E5
:100D900020813181428153818B81882F90E0A0E0B6
:100DA000B0E0280F391F4A1F5B1FEA85FB85698168
:100DB0007A81CB01880F991F860F971F880F991F83
:100DC000880F991F8E0F9F1F0696FC012083318389
:100DD0004283538389819A8101969A8389832981E9
:100DE0003A818C819D81281739070CF441CF00008E
:100DF0008091C8018823E1F31092C80136CFA1E2A7
:100E00001A2EAA1BBB1BFD010DC0AA1FBB1FEE1F84
:100E1000FF1FA217B307E407F50720F0A21BB30BCF
:100E2000E40BF50B661F771F881F991F1A9469F74B
:100E300060957095809590959B01AC01BD01CF01A7
:060E40000895F894FFCFB5
:100E46000100000000000002000000008D0200000A
:100E56000000474F4F4F00507573682042757474F9
:100E66006F6E20746F205374617274002800010045
:100E76000000010000000100000001000000010068
:100E86000000010000000100000001000000010058
:100E96000000010000000000000100000001000049
:100EA6000001000000010000000100000001000038
:100EB6000001000000010000000100000001000028
:100EC600426F746820706C61796572732066696E12
:100ED600697368656400506C6179657220312066BB
:100EE600696E697368656400506C61796572203259
:100EF6002046696E697368656400696E6974696124
:080F06006C697A696E67000056
:00000001FF
