:100000000C9446000C9465000C9465000C946500FB
:100010000C9465000C9465000C9465000C946500CC
:100020000C9465000C9465000C9465000C946500BC
:100030000C9465000C9465000C9465000C946500AC
:100040000C9465000C9465000C9465000C9465009C
:100050000C9465000C9465000C9465000C9465008C
:100060000C9465000C9465000C9465000C9465007C
:100070000C9465000C9465000C9465000C9465006C
:100080000C9465000C9465000C94650011241FBE4F
:10009000CFEFD0E4DEBFCDBF11E0A0E0B1E0ECE5F2
:1000A000F4E000E00BBF02C007900D92AE30B10744
:1000B000D9F721E0AEE0B1E001C01D92AF30B20748
:1000C000E1F70E94D8010C942C020C940000CF930D
:1000D000DF93CDB7DEB781E00E948E000000DF9194
:1000E000CF910895CF93DF93CDB7DEB784E690E04C
:1000F0000E94320188E30E948E0086E00E948E00FA
:100100008FE00E948E0081E00E948E008AE090E0E5
:100110000E9432010000DF91CF910895CF93DF93C9
:100120001F92CDB7DEB7898385E290E025E230E00B
:10013000F90120812F7BFC0120838BE290E0298153
:10014000FC01208385E290E025E230E0F901208186
:100150002068FC012083000085E290E025E230E089
:10016000F90120812F77FC01208382E090E00E943A
:10017000320100000F90DF91CF910895CF93DF936C
:100180001F92CDB7DEB7898385E290E025E230E0AB
:10019000F90120812064FC0120838BE290E0298119
:1001A000FC01208385E290E025E230E0F901208126
:1001B0002068FC012083000085E290E025E230E029
:1001C000F90120812F77FC01208381E090E00E94DB
:1001D000320100000F90DF91CF910895CF93DF930C
:1001E00000D000D0CDB7DEB78A837C836B830E94BA
:1001F00067008A81898311C0898191E0980F998372
:100200000E941B018B819C819C012F5F3F4F3C838F
:100210002B83FC0180810E94BE008B819C81FC01AC
:100220008081882349F700000F900F900F900F9066
:10023000DF91CF910895CF93DF931F92CDB7DEB7B3
:1002400089838981813128F4898181580E948E00B7
:1002500004C0898181550E948E0000000F90DF91BB
:10026000CF910895CF93DF9300D000D000D0CDB7C9
:10027000DEB79E838D831A82198213C01C821B8273
:1002800006C000008B819C8101969C838B838B81AF
:100290009C8187309340ACF389819A8101969A833F
:1002A000898329813A818D819E812817390734F30A
:1002B000000026960FB6F894DEBF0FBECDBFDF91CB
:1002C000CF910895CF93DF93CDB7DEB72C970FB6BC
:1002D000F894DEBF0FBECDBF6D837E838F8398877A
:1002E00029873A874B875C878D819E81AF81B8854E
:1002F00029853A854B855C85BC01CD010E940A02A7
:10030000DC01CB0189839A83AB83BC8389819A8189
:10031000AB81BC81892B8A2B8B2B29F489859A850B
:10032000AB85BC8511C089859A85AB85BC858D83DD
:100330009E83AF83B88789819A81AB81BC8189878D
:100340009A87AB87BC87D0CFBC01CD012C960FB666
:10035000F894DEBF0FBECDBFDF91CF910895CF934C
:10036000DF9300D01F92CDB7DEB789837B836A838A
:1003700089818A3031F48A819B81BC018DE00E94A1
:10038000AF0180EC90E0FC018081882F90E08072CA
:100390009927892BB1F386EC90E02981FC01208319
:1003A00080E090E00F900F900F90DF91CF91089533
:1003B000CF93DF93CDB7DEB728970FB6F894DEBFA3
:1003C0000FBECDBF82E090E09A8389831C821B829E
:1003D00089819A819C01215031093E832D839C01A2
:1003E0004BE0429FC001439F900D11242DB73EB7B3
:1003F000281B390B0FB6F8943EBF0FBE2DBF8DB72B
:100400009EB7019698878F838B819C8101969C83F0
:100410008B83FFCFA1E21A2EAA1BBB1BFD010DC0CF
:10042000AA1FBB1FEE1FFF1FA217B307E407F507A4
:1004300020F0A21BB30BE40BF50B661F771F881F80
:10044000991F1A9469F760957095809590959B0116
:0C045000AC01BD01CF010895F894FFCF6E
:0E045C000000000200000000AF0100000000E0
:00000001FF
