:100000000C9446000C9465000C9465000C946500FB
:100010000C9465000C9465000C9465000C946500CC
:100020000C9465000C9465000C9465000C946500BC
:100030000C9465000C9430010C9465000C946500E0
:100040000C9465000C9465000C9465000C9465009C
:100050000C9465000C9465000C9465000C9465008C
:100060000C9465000C9465000C9465000C9465007C
:100070000C9465000C9465000C9465000C9465006C
:100080000C9465000C9465000C94650011241FBE4F
:10009000CFEFD0E4DEBFCDBF11E0A0E0B1E0E2EDF4
:1000A000F9E000E00BBF02C007900D92A039B10744
:1000B000D9F721E0A0E9B1E001C01D92AB39B20748
:1000C000E1F70E94E3020C94E7040C940000CF9344
:1000D000DF93CDB7DEB72C970FB6F894DEBF0FBE17
:1000E000CDBF6D837E838F83988729873A874B871F
:1000F0005C878D819E81AF81B88529853A854B8546
:100100005C85BC01CD010E94C504DC01CB01898363
:100110009A83AB83BC8389819A81AB81BC81892B13
:100120008A2B8B2B29F489859A85AB85BC8511C0D8
:1001300089859A85AB85BC858D839E83AF83B8877F
:1001400089819A81AB81BC8189879A87AB87BC877B
:10015000D0CFBC01CD012C960FB6F894DEBF0FBEF8
:10016000CDBFDF91CF910895CF93DF9300D000D022
:10017000CDB7DEB769837A838B839C8389819A812B
:10018000AB81BC818093000190930101A093020197
:10019000B09303018091000190910101A0910201AF
:1001A000B09103018093910190939201A0939301E8
:1001B000B093940100000F900F900F900F90DF917B
:1001C000CF910895CF93DF93CDB7DEB781E890E06C
:1001D0002BE0FC01208388E890E02DE730E0FC0173
:1001E000318320838FE690E022E0FC01208384E8C5
:1001F00090E0FC0111821082809100019091010138
:10020000A0910201B091030180939101909392011A
:10021000A0939301B09394018FE590E02FE530E037
:10022000F90120812068FC0120830000DF91CF913B
:100230000895CF93DF93CDB7DEB781E890E0FC015E
:1002400010820000DF91CF910895CF93DF93CDB757
:10025000DEB781E0809390010000DF91CF91089597
:100260001F920F9200905F000F92112400905B008C
:100270000F922F933F934F935F936F937F938F933F
:100280009F93AF93BF93EF93FF93CF93DF93CDB73C
:10029000DEB78091910190919201A0919301B0916C
:1002A00094010197A109B109809391019093920162
:1002B000A0939301B0939401809191019091920148
:1002C000A0919301B0919401892B8A2B8B2B91F4EF
:1002D0000E9425018091000190910101A0910201ED
:1002E000B09103018093910190939201A0939301A7
:1002F000B09394010000DF91CF91FF91EF91BF91F6
:10030000AF919F918F917F916F915F914F913F91AD
:100310002F910F9000925B000F9000925F000F9062
:100320001F901895CF93DF9300D01F92CDB7DEB703
:1003300089837B836A8389818A3031F48A819B81B6
:10034000BC018DE00E94920180EC90E0FC01808174
:10035000882F90E080729927892BB1F386EC90E08A
:100360002981FC01208380E090E00F900F900F9096
:10037000DF91CF910895CF93DF93CDB7DEB78AE7B2
:1003800090E02AE730E0F9012081206EFC01208313
:100390000000DF91CF910895CF93DF9300D000D07C
:1003A000CDB7DEB788E790E0FC0180819181CC0178
:1003B000A0E0B0E089839A83AB83BC8389819A8172
:1003C000AB81BC81C197A105B10510F481E001C0EA
:1003D00080E00F900F900F900F90DF91CF910895D4
:1003E000CF93DF9300D000D0CDB7DEB788E790E0A1
:1003F000FC0180819181CC01A0E0B0E089839A83E7
:10040000AB83BC8389819A81AB81BC818F3C934053
:10041000A105B10510F081E001C080E00F900F90C0
:100420000F900F90DF91CF910895CF93DF9300D07D
:100430001F92CDB7DEB79B838A8383E290E0FC01F5
:100440008081817089838A819B81892B31F48981A4
:10045000809395011B821A8203C01B821A820000BE
:100460008A819B810F900F900F90DF91CF9108951B
:10047000CF93DF9300D0CDB7DEB79A83898389818C
:100480009A8181309105B9F08230910571F1892B03
:1004900079F580919501882319F41A8219822BC06D
:1004A00010929801109297011092960181E090E0CD
:1004B0009A83898320C080919501882319F41A8238
:1004C000198219C0209197013091980188E290E03B
:1004D0002817390728F082E090E09A8389830BC0BF
:1004E00081E090E09A83898306C01A82198203C052
:1004F0001A821982000089819A818130910551F018
:100500008230910509F43EC0892B09F042C0109257
:1005100099013FC0209197013091980188E290E0C5
:1005200028173907A8F580919701909198018C5E62
:100530009E4FFC0180818670809399010E94CC01BE
:10054000282F8091970190919801835C9E4FFC0128
:1005500080812817E9F40E94F001282F80919701EB
:10056000909198018A599E4FFC018081281781F44F
:1005700080919701909198010196909398018093B2
:10058000970106C081E0809396011092950101C009
:10059000000080919601882321F081E080939A01E8
:1005A00002C010929A018BE290E030919901209163
:1005B0009A01232BFC01208389819A810F900F904F
:1005C000DF91CF910895CF93DF93CDB7DEB72B970F
:1005D0000FB6F894DEBF0FBECDBF81E290E0FC0104
:1005E000108284E290E0FC01108285E290E021E03C
:1005F000FC0120838AE290E02FEFFC0120838BE254
:1006000090E0FC01108282E38B8382E090E09D8386
:100610008C831F821E822C813D81C901019799879D
:100620008887A901CA01880F991F840F951F880F19
:10063000991F880F991FC901880F991F820F931F57
:10064000880F991F880F991F2DB73EB7281B390BAC
:100650000FB6F8943EBF0FBE2DBF8DB79EB7019663
:100660009B878A874A855B852E813F81C901880FD8
:10067000991F820F931F880F991F880F991F840F4E
:10068000951F2FEF3FEFFC01318320834A855B8567
:100690002E813F81C901880F991F820F931F880FF8
:1006A000991F880F991F840F951F9C012E5F3F4F44
:1006B00082E390E0A0E0B0E0F90180839183A2831F
:1006C000B3834A855B852E813F81C901880F991FBD
:1006D000820F931F880F991F880F991F840F951FF2
:1006E0000696FC0110821182128213824A855B8574
:1006F0002E813F81C901880F991F820F931F880F98
:10070000991F880F991F840F951F0A9625E132E0E3
:10071000FC01318320838E819F8101969F838E838C
:100720004A855B852E813F81C901880F991F820F01
:10073000931F880F991F880F991F840F951F2FEF04
:100740003FEFFC01318320834A855B852E813F8109
:10075000C901880F991F820F931F880F991F880F57
:10076000991F840F951F9C012E5F3F4F82E390E0FD
:10077000A0E0B0E0F90180839183A283B3834A852E
:100780005B852E813F81C901880F991F820F931FBE
:10079000880F991F880F991F840F951F0696FC01DB
:1007A00010821182128213824A855B852E813F81DD
:1007B000C901880F991F820F931F880F991F880FF7
:1007C000991F840F951F0A9628E332E0FC013183BC
:1007D00020838E819F8101969F838E830E94BB011F
:1007E0008B81882F90E0A0E0B0E0BC01CD010E9499
:1007F000B4000E94E2001A821982B7C04A855B8564
:1008000029813A81C901880F991F820F931F880F90
:10081000991F880F991F840F951F0696FC01208150
:10082000318142815381EA85FB8569817A81CB01DF
:10083000880F991F860F971F880F991F880F991F80
:100840008E0F9F1F0296FC0180819181A281B3814E
:10085000281739074A075B0708F44FC04A855B85AC
:1008600029813A81C901880F991F820F931F880F30
:10087000991F880F991F840F951F0A96FC014081CC
:1008800051816A857B8529813A81C901880F991F29
:10089000820F931F880F991F880F991F860F971F2C
:1008A000FC0180819181FA010995BC014A855B8533
:1008B00029813A81C901880F991F820F931F880FE0
:1008C000991F880F991F840F951FFC017183608306
:1008D0004A855B8529813A81C901880F991F820F5A
:1008E000931F880F991F880F991F840F951F0696D5
:1008F000FC0110821182128213824A855B85298154
:100900003A81C901880F991F820F931F880F991F81
:10091000880F991F840F951F0696FC012081318155
:10092000428153818B81882F90E0A0E0B0E0280FB6
:10093000391F4A1F5B1FEA85FB8569817A81CB01DC
:10094000880F991F860F971F880F991F880F991F6F
:100950008E0F9F1F0696FC012083318342835383B1
:1009600089819A8101969A83898329813A818C8130
:100970009D81281739070CF441CF00008091900128
:100980008823E1F31092900136CFA1E21A2EAA1B20
:10099000BB1BFD010DC0AA1FBB1FEE1FFF1FA2172F
:1009A000B307E407F50720F0A21BB30BE40BF50B2C
:1009B000661F771F881F991F1A9469F760957095B5
:1009C000809590959B01AC01BD01CF010895F894ED
:0209D000FFCF57
:1009D200010000000000000200000000920100007F
:1009E20000002800040402020404020204040202B9
:1009F20004040202040402020404020204040202C5
:100A020004040202040402020404020200010000BF
:100A120000010000000100000001000000010000D0
:100A220000010000000100000001000000010000C0
:100A320000010000000000000100000001000000B1
:100A420001000000010000000100000001000000A0
:100A52000100000001000000010000000100000090
:00000001FF
